:100000000A128A115F2C00308A000408840A8207D1
:1000100000346B3472346934733468347434653446
:1000200063342E3463346F342E3469346E342F3499
:100030006D3432346D343F3453343D340034413404
:1000400054342B34483454345434503441344334CD
:10005000543449344F344E343D3431340034413417
:1000600054342B34533441345034423452343D34BC
:1000700031342C3431340034413454342B3448344A
:1000800054345434503450344134523441343D3477
:100090000034413454342B344834543454345034C0
:1000A00049344E34493454340034413454342B34BC
:1000B00043345234453447343F34003454344534A7
:1000C0004D3450343A3400344334493444340034E9
:1000D000553452344C34003444346534673400347D
:0600E000413454340034E9
:100872008E30831603139F000800F0007008831265
:1008820003139900442C0C1E472C482C442C0C12A8
:100892000800813083160313990018151812831269
:1008A20003139817831603138C1683120313181657
:1008B2008316031398168B170B170800FA01FB0116
:1008C200FC01FD01A001A101A201A301A401A50156
:1008D200A601A701A801A901AA01AB01AC01AD01C2
:1008E20083010A128A11E52D01300A128A118E241F
:1008F2000A128A1106300A128A118E240A128A11E9
:100902000C300A128A118E240A128A1138300A1205
:100912008A118E240A128A110800F20072088312C8
:1009220003138800051185154130F100EE30F00007
:10093200F00B992CF10B992C64008312031385118F
:100942004130F100EE30F000F00BA52CF10BA52C9C
:1009520064000800F2007208831203138800051570
:1009620085154130F100EE30F000F00BB62CF10BA2
:10097200B62C64008312031385114130F100EE306E
:10098200F000F00BC22CF10BC22C64000800F20044
:10099200DB2C720884000A128A1103200A128A11BF
:1009A2000A128A113E240A128A110130F1007108DA
:1009B200F207DB2C720884000A128A1103200A1241
:1009C2008A110038031DE62CE72CCA2CE82C0800FB
:1009D200F500042D750884000A128A1103200A12F8
:1009E2008A110A128A11AB240A128A110130F30009
:1009F2007308F5070730F4007D30F300F30BFF2C8A
:100A0200F40BFF2C042D750884000A128A110320AE
:100A12000A128A110038031D0F2D102DEB2C112DF7
:100A22000800C530831203139F00172D1F191A2DBA
:100A32001B2D172D1C2D831603131E08F000F10128
:100A4200700883120313A0007108A1001E08F000B1
:100A5200F1017008FA007108FB007B08F1007A08C6
:100A6200F0000830FF000310F00DF10DFF0B342DE4
:100A72007008FA007108FB002108F1002008F0005C
:100A820001300310F10CF00CFF3E031D422D7A08D9
:100A92007007A2007B0803187B0A7107A3000800F5
:100AA200710870040319562D572D8D2DF50103146D
:100AB200F50D672D01300310F00DF10DFF3E031D02
:100AC2005C2D0130F4007408F507672DF11F6A2DC3
:100AD2006B2D5B2D6D2D6D2D71087302031D732D12
:100AE20070087202031C762D772D7E2D7008F2029B
:100AF2007108031CF303F3027E2D01300310F10C85
:100B0200F00CFF3E031D7F2D0130F502031D8A2DDF
:100B12008B2D6D2D8D2D8D2D7308F101F10772082E
:100B2200F001F007942D08000030F5000030F600C7
:100B32007108700403199E2D9F2DDD2DF7010314FA
:100B4200F70DAF2D01300310F00DF10DFF3E031D27
:100B5200A42D0130F4007408F707AF2DF11FB22D58
:100B6200B32DA32DB52DB52D01300310F50DF60DC6
:100B7200FF3E031DB62D71087302031DC22D7008BE
:100B82007202031CC52DC62DCE2D7008F20271080B
:100B9200031CF303F3027514CE2D01300310F10C84
:100BA200F00CFF3E031DCF2D0130F702031DDA2D9D
:100BB200DB2DB52DDD2DDD2D7608F101F107750850
:100BC200F001F007E42D08000130831603138500BD
:100BD20083120313850183160313880183120313FF
:100BE2008801803083160313870083120313870161
:100BF2000A128A1139240A128A110A128A117524D8
:100C02000A128A1180300A128A118E240A128A115B
:100C120056300A128A11E9240A128A1187300A12FE
:100C22008A118E240A128A1164300A128A11E92466
:100C32000A128A110A128A114A240A128A110A1203
:100C42008A1148260A128A11262E0A128A111225A0
:100C52000A128A1185300A128A118E240A128A1106
:100C6200831203132308F901F9072208F801F80790
:100C72000A128A11C4260A128A110A128A115D27DF
:100C82000A128A11262E262E0A128A11002868308C
:100C92000A128A11C8240A128A110D300A128A1104
:100CA2003E240A128A110D30F500A330F400BD3043
:100CB200F300F30B5A2EF40B5A2EF50B5A2E640046
:100CC20068300A128A11C8240A128A110D300A12D7
:100CD2008A113E240A128A110D30F500A330F40065
:100CE200BD30F300F30B732EF40B732EF50B732E42
:100CF20064004D300A128A11C8240A128A110D307A
:100D02000A128A113E240A128A110D30F500A3300C
:100D1200F400BD30F300F30B8C2EF40B8C2EF50B8C
:100D22008C2E640027300A128A11C8240A128A11F2
:100D32000D300A128A113E240A128A111A30F50065
:100D42004530F4007E30F300F30BA52EF40BA52EF4
:100D5200F50BA52E41300A128A11C8240A128A11F3
:100D62000D300A128A113E240A128A111A30F50035
:100D72004530F4007E30F300F30BBD2EF40BBD2E94
:100D8200F50BBD2E0800E830F0000330F1007908C1
:100D9200F301F3077808F201F2070A128A11952586
:100DA2000A128A11710883120313A501A50770089C
:100DB200A401A407E830F0000330F1007908F30140
:100DC200F3077808F201F2070A128A1151250A1272
:100DD2008A117108FD01FD077008FC01FC076430EF
:100DE200F0000030F1007D08F301F3077C08F20106
:100DF200F2070A128A1195250A128A1171088312C2
:100E02000313A701A7077008A601A6076430F00024
:100E12000030F1007D08F301F3077C08F201F207CC
:100E22000A128A1151250A128A11710883120313B8
:100E3200A901A9077008A801A8070A30F00000302C
:100E4200F1002908F301F3072808F201F2070A1258
:100E52008A1195250A128A11710883120313AB01B4
:100E6200AB077008AA01AA070A30F0000030F100AF
:100E72002908F301F3072808F201F2070A128A117E
:100E820051250A128A11710883120313AD01AD07AD
:100E92007008AC01AC072A08303E0A128A11AB2452
:100EA2000A128A11831203132C08303E0A128A1185
:100EB200AB240A128A11080034300A128A11C8249B
:100EC2000A128A1122300A128A113E240A128A1147
:100ED20060300A128A11C8240A128A1122300A12B8
:100EE2008A113E240A128A112C300A128A113E24D7
:100EF2000A128A1122300A128A113E240A128A1117
:100F020001300A128A11C8240A128A1183120313A9
:100F12002A08303E0A128A113E240A128A118312CA
:100F220003132C08303E0A128A113E240A128A1137
:100F320022300A128A113E240A128A110D300A1234
:100F42008A113E240A128A111A30F5004530F40043
:100F52007E30F300F30BAB2FF40BAB2FF50BAB2F63
:100F620034300A128A11C8240A128A1122300A1253
:100F72008A113E240A128A115C300A128A11C8248C
:100F82000A128A1122300A128A113E240A128A1186
:100F92002C300A128A113E240A128A1131300A12A6
:100FA2008A113E240A128A110D300A128A113E2435
:100FB2000A128A113330F5008930F4000030F30050
:100FC200F30BE12FF40BE12FF50BE12F17300A128F
:100FD2008A11C8240A128A110D300A128A113E247B
:100FE2000A128A111A30F5004530F4007E30F300FF
:0E0FF200F30BF92FF40BF92FF50BF92F080074
:00000001FF
